:020000040800F2
:1000000000000220F50E0008AD0B0008B30B00083D
:10001000B90B0008BF0B0008C50B0008000000006A
:10002000000000000000000000000000CB0B0008F2
:10003000D90B000800000000E70B0008F50B0008D2
:10004000450F0008450F0008450F0008450F000840
:10005000450F0008450F0008450F0008450F000830
:10006000450F0008450F0008450F0008450F000820
:10007000450F0008450F0008450F0008450F000810
:10008000450F0008450F0008450F0008450F000800
:10009000450F0008450F0008450F0008450F0008F0
:1000A000450F0008450F0008450F0008450F0008E0
:1000B000010C0008150C0008290C0008450F000869
:1000C000450F0008450F0008450F0008450F0008C0
:1000D000450F0008450F0008450F0008450F0008B0
:1000E000450F0008450F0008450F0008450F0008A0
:1000F000450F0008450F0008450F0008450F000890
:10010000450F0008450F0008450F0008450F00087F
:10011000450F0008450F0008450F0008450F00086F
:10012000450F0008450F0008450F0008450F00085F
:10013000450F0008450F0008450F0008450F00084F
:10014000450F0008450F0008450F0008450F00083F
:10015000450F0008450F0008450F0008450F00082F
:10016000450F0008450F0008450F0008450F00081F
:10017000450F0008450F0008450F0008000000006B
:08018000450F0008450F0008BF
:1001880010B5054C237833B9044B13B10448AFF3C9
:1001980000800123237010BD1C0000200000000017
:1001A800342C000808B5034B1BB103490348AFF3CF
:1001B800008008BD0000000020000020342C00084A
:1001C80053B94AB9002908BF00281CBF4FF0FF31B6
:1001D8004FF0FF3000F070B9ADF1080C6DE904CEB6
:1001E80000F006F8DDF804E0DDE9022304B070470A
:1001F8002DE9F047089E0D4604460F46002B4AD1CC
:100208008A42944665D9B2FA82F343B102FA03FCF2
:10021800C3F120029F4020FA02F217439C404FEAA4
:100228001C4E1FFA8CF5B7FBFEF1220C0EFB117762
:1002380042EA074201FB05F090420AD91CEB020290
:1002480001F1FF3780F01C81904240F21981023998
:100258006244121AA4B2B2FBFEF00EFB102244EA6A
:10026800024400FB05F5A5420AD91CEB040400F181
:10027800FF3280F00781A54240F2048164440238CD
:1002880040EA0140641B00211EB1DC400023C6E99E
:100298000043BDE8F0878B4208D9002E00F0ED80BE
:1002A8000021C6E900050846BDE8F087B3FA83F1E6
:1002B800002949D1AB4202D3824200F2F880841A65
:1002C80065EB030201201746002EE2D0C6E900477D
:1002D800DFE702B9FFDEB2FA82F3002B40F090802C
:1002E8008A1A4FEA1C471FFA8CFE0121B2FBF7F568
:1002F80007FB1520220C42EA00420EFB05F0904253
:1003080008D91CEB020205F1FF3802D2904200F234
:10031800CB804546121AA4B2B2FBF7F007FB1022B5
:1003280044EA02440EFB00FEA64508D91CEB04046F
:1003380000F1FF3202D2A64500F2BB801046A4EBC2
:100348000E0440EA05409FE7C1F120078B4022FADE
:1003580007FC4CEA030C05FA01F420FA07F3FD4008
:100368004FEA1C492343B5FBF9F81FFA8CFE09FB39
:1003780018551C0C44EA054408FB0EF5A54202FA80
:1003880001F200FA01F00BD91CEB040408F1FF3A62
:1003980080F08880A54240F28580A8F10208644474
:1003A800641B9DB2B4FBF9F309FB134445EA04440A
:1003B80003FB0EFEA64508D91CEB040403F1FF3528
:1003C8006CD2A6456AD9023B644443EA0843A3FBBE
:1003D8000295A4EB0E04AC42C846AE4656D353D0A1
:1003E80056B1B0EB080264EB0E0404FA07F7CA40F2
:1003F800CC401743C6E9007418460021BDE8F087D1
:10040800C3F1200102FA03FC20FA01F225FA01F1F6
:100418009D402A434FEA1C471FFA8CFEB1FBF7F0B8
:1004280007FB1015110C41EA054100FB0EF58D4242
:1004380004FA03F408D91CEB010100F1FF382FD2AC
:100448008D422DD902386144491B92B2B1FBF7F5B0
:1004580007FB151142EA014205FB0EF1914208D94A
:100468001CEB020205F1FF3816D2914214D9023D65
:100478006244521A45EA004138E73146304608E7F7
:100488003946E6E61046FBE64845A9D2B9EB02082C
:1004980065EB0C0E013BA3E74546EAE72B4694E7DC
:1004A8004046D1E7D0467BE7023D624432E7084642
:1004B8000AE76444023842E7704700BF80B58CB051
:1004C80000AF07F11C0300221A605A609A60DA60D4
:1004D8001A610023BB615A4B1B6B594A43F0100346
:1004E8001363574B1B6B03F01003BB61BB690023FD
:1004F8007B61534B1B6B524A43F080031363504B91
:100508001B6B03F080037B617B6900233B614C4BD1
:100518001B6B4B4A43F001031363494B1B6B03F0FE
:1005280001033B613B690023FB60454B1B6B444A5D
:1005380043F004031363424B1B6B03F00403FB609B
:10054800FB680023BB603E4B1B6B3D4A43F04003F6
:1005580013633B4B1B6B03F04003BB60BB6800237A
:100568007B60374B1B6B364A43F008031363344BED
:100578001B6B03F008037B607B6800233B60304BF8
:100588001B6B2F4A43F0020313632D4B1B6B03F0C5
:1005980002033B603B68002270212A4801F014F8EE
:1005A80000224021284801F00FF80022082127489E
:1005B80001F00AF87023FB6101233B6200237B6290
:1005C8000023BB6207F11C0319461E4800F060FEB9
:1005D800C023FB6100233B6200237B6207F11C03FD
:1005E80019461B4800F054FE3023FB6100233B6290
:1005F80000237B6207F11C031946164800F048FEE9
:100608004023FB6101233B6200237B620023BB6222
:1006180007F11C0319460C4800F03AFE0823FB6159
:1006280001233B6200237B620023BB6207F11C03AA
:100638001946064800F02CFE00BF3037BD4680BD85
:10064800003802400010024000180240000C02402E
:10065800000002400008024080B500AF3F4B1B88F5
:10066800DBB29AB23D4B1A803D4B1B881A463D4B74
:100678009B5C1B021AB2394B1B881BB213431BB27B
:100688009AB2364B1A80364B1B88032B46D801A2E8
:1006980052F823F0AD060008CB060008E90600086A
:1006A800070700082D4B1B8843F0B0039AB22B4B69
:1006B8001A802A4B1B8823F040039AB2274B1A80D2
:1006C8002DE0264B1B8843F0D0039AB2234B1A80A7
:1006D800224B1B8823F020039AB2204B1A801EE07D
:1006E8001E4B1B8843F0E0039AB21C4B1A801B4B2D
:1006F8001B8823F010039AB2184B1A800FE0174B8F
:100708001B8843F070039AB2144B1A80134B1B8852
:1007180023F080039AB2114B1A8000E000BF104BFF
:100728001B8801335A4203F0030302F0030258BF47
:1007380053429AB20A4B1A80002240210A4800F01C
:1007480043FF012302220549084801F0BBFB0122AF
:100758004021054800F038FF00BF80BD040000209C
:100768003800002000000020001802404C00002043
:1007780080B500AF00F0E4FB00F038F8FFF79EFE0C
:1007880000F06AFA00F0B4FA00F000FB00F098F804
:10079800002000F0B5F84FF4FA6000F0A5F800204A
:1007A80000F0D2F8012000F0CFF841F2883000F0D4
:1007B8009BF8012000F0A4F80A4B1B78012B05D107
:1007C800084B00221A70012000F0E2F8064B1B7853
:1007D800012BF1D1044B00221A70002000F0D8F848
:1007E800EAE700BF3A0000204000002080B594B03E
:1007F80000AF07F1200330220021184602F0EAF981
:1008080007F10C0300221A605A609A60DA601A61D4
:100818000023BB60284B1B6C274A43F080531364AA
:10082800254B1B6C03F08053BB60BB6800237B60C7
:10083800224B1B68214A43F4804313601F4B1B68FB
:1008480003F480437B607B6802233B620123FB62E5
:1008580010233B630223BB630023FB6308233B6431
:10086800A8237B640223BB640423FB6407F12003F1
:10087800184600F0C3FE0346002B01D000F0AAF88A
:100888000F23FB6002233B6100237B614FF4A053DD
:10089800BB614FF48053FB6107F10C030521184637
:1008A80001F024F90346002B01D000F093F800BFB3
:1008B8005037BD4680BD00BF003802400070004080
:1008C80080B500AF00F08CF800F094F84FF47A701F
:1008D80000F09AF841F2883000F0B2F84FF47A70DC
:1008E80000F002F800BF80BD80B582B000AF78602C
:1008F8004FF47A7000F096FB00BF0837BD4680BD04
:1009080080B582B000AF78607B68002B11DB7B6814
:10091800012B0EDC094A7B6813441B789BB2012229
:100928001946074800F050FE064A7B6813449B228C
:100938001A7000BF0837BD4680BD00BF0800002000
:10094800001002400C00002080B582B000AF786033
:100958007B68002B11DB7B68012B0EDC094A7B6866
:1009680013441B789BB200221946074800F02CFE5E
:10097800064A7B68134446221A7000BF0837BD46F2
:1009880080BD00BF08000020001002400C000020BD
:1009980080B582B000AF78600D4A7B6813441B783D
:1009A8009B2B08D17868FFF7CFFF094A7B6813446F
:1009B80046221A7007E07868FFF7A2FF044A7B68AE
:1009C80013449B221A7000BF0837BD4680BD00BF84
:1009D8000C00002080B400AF72B600BFFEE7000034
:1009E80080B500AF024801F0C3FC00BF80BD00BF66
:1009F800A400002080B500AF024801F0B9FC00BF98
:100A080080BD00BFEC00002080B483B000AF7860E8
:100A18007B689AB2074B1A80064B1A88064B1A80D5
:100A2800064B00221A7000BF0C37BD465DF8047BE8
:100A3800704700BF3E0000203C0000203A00002024
:100A480080B483B000AF78607B689AB2074B1A8095
:100A5800064B1A88064B1A80064B00221A7000BFF4
:100A68000C37BD465DF8047B704700BF440000208A
:100A7800420000204000002080B582B000AF7860BE
:100A88007B681B68B3F1804F14D1274B1B88002B60
:100A980010D0254B1B88013B9AB2234B1A80224B5E
:100AA8001B88002B06D1214B01221A70204B1A8873
:100AB8001D4B1A807B681B681E4A934214D11E4B3B
:100AC8001B88002B10D01C4B1B88013B9AB21A4B79
:100AD8001A80194B1B88002B06D1184B01221A705B
:100AE800174B1A88144B1A807B681B68154A934267
:100AF80016D1154B1B88002B10D0134B1B88013BBC
:100B08009AB2114B1A80104B1B88002B06D10F4B41
:100B180001221A700E4B1A880B4B1A80FFF79CFDA6
:100B280000BF0837BD4680BD3C0000203A000020C9
:100B38003E00002000040040420000204000002049
:100B48004400002000080040480000204600002023
:100B58004A00002080B483B000AF00237B60104BB4
:100B68005B6C0F4A43F4804353640D4B5B6C03F496
:100B780080437B607B6800233B60094B1B6C084A01
:100B880043F080531364064B1B6C03F080533B60A7
:100B98003B6800BF0C37BD465DF8047B704700BF5B
:100BA8000038024080B400AFFEE780B400AFFEE733
:100BB80080B400AFFEE780B400AFFEE780B400AFBA
:100BC800FEE780B400AF00BFBD465DF8047B704708
:100BD80080B400AF00BFBD465DF8047B704780B4A9
:100BE80000AF00BFBD465DF8047B704780B500AF1D
:100BF80000F0F8F900BF80BD80B500AF024801F0F1
:100C080027FC00BF80BD00BFA400002080B500AF56
:100C1800024801F01DFC00BF80BD00BFEC000020B1
:100C280080B500AF024801F013FC00BF80BD00BFD3
:100C38003401002080B400AF064BD3F88830054A51
:100C480043F47003C2F8883000BFBD465DF8047BEA
:100C5800704700BF00ED00E080B586B000AF07F137
:100C6800080300221A605A609A60DA603B46002244
:100C78001A605A601D4B4FF080421A601B4B40F2BD
:100C880047325A60194B00229A60184B6322DA6087
:100C9800164B00221A61154B00229A61134801F085
:100CA80017FB0346002B01D0FFF794FE4FF4805347
:100CB800BB6007F1080319460C4801F0D1FC034654
:100CC800002B01D0FFF786FE00233B6000237B60EA
:100CD8003B461946054801F0EDFE0346002B01D0BE
:100CE800FFF778FE00BF1837BD4680BDA40000207E
:100CF80080B586B000AF07F1080300221A605A6079
:100D08009A60DA603B4600221A605A601D4B1E4A00
:100D18001A601C4B40F247325A601A4B00229A6004
:100D2800184B6322DA60174B00221A61154B002218
:100D38009A61144801F0CCFA0346002B01D0FFF762
:100D480049FE4FF48053BB6007F1080319460D486C
:100D580001F086FC0346002B01D0FFF73BFE002381
:100D68003B6000237B603B461946064801F0A2FE23
:100D78000346002B01D0FFF72DFE00BF1837BD46F4
:100D880080BD00BFEC0000200004004080B586B0A4
:100D980000AF07F1080300221A605A609A60DA600F
:100DA8003B4600221A605A601D4B1E4A1A601C4BB3
:100DB80040F247325A601A4B00229A60184B63225D
:100DC800DA60174B00221A61154B00229A61144809
:100DD80001F07EFA0346002B01D0FFF7FBFD4FF42C
:100DE8008053BB6007F1080319460D4801F038FC31
:100DF8000346002B01D0FFF7EDFD00233B600023E5
:100E08007B603B461946064801F054FE0346002B1A
:100E180001D0FFF7DFFD00BF1837BD4680BD00BF1A
:100E2800340100200008004080B586B000AF78602B
:100E38007B681B68B3F1804F16D100237B61284B78
:100E48001B6C274A43F001031364254B1B6C03F00A
:100E580001037B617B69002200211C2000F0E1F97D
:100E68001C2000F0FAF936E07B681B681D4A9342A3
:100E780016D100233B611A4B1B6C194A43F002033D
:100E88001364174B1B6C03F002033B613B690022A0
:100E980000211D2000F0C5F91D2000F0DEF91AE040
:100EA8007B681B68104A934215D10023FB600C4BEA
:100EB8001B6C0B4A43F004031364094B1B6C03F0CF
:100EC8000403FB60FB68002200211E2000F0A9F942
:100ED8001E2000F0C2F900BF1837BD4680BD00BF14
:100EE800003802400004004000080040DFF834D019
:100EF8000D480E490E4A002302E0D458C45004336A
:100F0800C4188C42F9D30B4A0B4C002301E0136040
:100F18000432A242FBD3FFF78DFE01F063FEFFF718
:100F280027FC704700000220000000201C00002061
:100F38006C2C00081C00002080010020FEE7000047
:100F480080B500AF0E4B1B680D4A43F40073136065
:100F58000B4B1B680A4A43F480631360084B1B68F9
:100F6800074A43F480731360032000F04FF90F2001
:100F780000F008F8FFF7EEFD0023184680BD00BF1B
:100F8800003C024080B582B000AF7860124B1A680E
:100F9800124B1B7819464FF47A73B3FBF1F3B2FB8B
:100FA800F3F3184600F067F90346002B01D001233C
:100FB8000EE07B680F2B0AD8002279684FF0FF30CB
:100FC80000F02FF9064A7B681360002300E0012334
:100FD80018460837BD4680BD1000002018000020C4
:100FE8001400002080B400AF064B1B781A46064B4D
:100FF8001B681344044A136000BFBD465DF8047BB8
:10100800704700BF180000207C01002080B400AFAA
:10101800034B1B681846BD465DF8047B704700BF4C
:101028007C01002080B584B000AF7860FFF7EEFF48
:10103800B8607B68FB60FB68B3F1FF3F05D00A4BE3
:101048001B781A46FB681344FB6000BFFFF7DEFFFE
:101058000246BB68D31AFA689A42F7D800BF00BFA5
:101068001037BD4680BD00BF1800002080B485B091
:1010780000AF78607B6803F00703FB600C4BDB680C
:10108800BB60BA684FF6FF031340BB60FB681A02E7
:10109800BB68134343F0BF6343F40033BB60044AA7
:1010A800BB68D36000BF1437BD465DF8047B70474A
:1010B80000ED00E080B400AF044BDB681B0A03F0CE
:1010C80007031846BD465DF8047B704700ED00E055
:1010D80080B483B000AF0346FB7197F90730002B4B
:1010E8000BDBFB7903F01F02074997F907305B090F
:1010F800012000FA02F241F8232000BF0C37BD4658
:101108005DF8047B704700BF00E100E080B483B065
:1011180000AF03463960FB7197F90730002B0ADBF3
:101128003B68DAB20C4997F907301201D2B20B4486
:1011380083F800230AE03B68DAB20849FB7903F038
:101148000F03043B1201D2B20B441A7600BF0C37CE
:10115800BD465DF8047B704700E100E000ED00E06B
:1011680080B489B000AFF860B9607A60FB6803F0BA
:101178000703FB61FB69C3F10703042B28BF0423A2
:10118800BB61FB690433062B02D9FB69033B00E012
:1011980000237B614FF0FF32BB6902FA03F3DA43A5
:1011A800BB681A407B699A404FF0FF317B6901FAAE
:1011B80003F3D9437B680B40134318462437BD46D5
:1011C8005DF8047B7047000080B582B000AF78609E
:1011D8007B68013BB3F1807F01D301230FE00A4A0A
:1011E8007B68013B53600F214FF0FF30FFF78EFF04
:1011F800054B00229A60044B07221A600023184608
:101208000837BD4680BD00BF10E000E080B582B061
:1012180000AF78607868FFF729FF00BF0837BD4640
:1012280080BD80B586B000AF0346B9607A60FB73B5
:1012380000237B61FFF73EFF78617A68B9687869B7
:10124800FFF78EFF024697F90F3011461846FFF751
:101258005DFF00BF1837BD4680BD80B582B000AFC6
:101268000346FB7197F907301846FFF731FF00BFB7
:101278000837BD4680BD80B582B000AF7860786819
:10128800FFF7A2FF034618460837BD4680BD000099
:1012980080B489B000AF7860396000237B61002397
:1012A8003B610023BB610023FB616BE10122FB6909
:1012B80002FA03F37B613B681B687A6913403B6160
:1012C8003A697B699A4240F05A813B685B6803F04F
:1012D8000303012B05D03B685B6803F00303022B73
:1012E80030D17B689B68BB61FB695B00032202FA13
:1012F80003F3DB43BA691340BB613B68DA68FB69F7
:101308005B0002FA03F3BA691343BB617B68BA69ED
:101318009A607B685B68BB610122FB6902FA03F390
:10132800DB43BA691340BB613B685B681B0903F088
:101338000102FB6902FA03F3BA691343BB617B68D4
:10134800BA695A603B685B6803F00303032B17D044
:101358007B68DB68BB61FB695B00032202FA03F36D
:10136800DB43BA691340BB613B689A68FB695B0061
:1013780002FA03F3BA691343BB617B68BA69DA609E
:101388003B685B6803F00303022B23D1FB69DA088F
:101398007B68083253F82230BB61FB6903F007030E
:1013A8009B000F2202FA03F3DB43BA691340BB61C7
:1013B8003B681A69FB6903F007039B0002FA03F311
:1013C800BA691343BB61FB69DA087B680832B969FB
:1013D80043F822107B681B68BB61FB695B00032232
:1013E80002FA03F3DB43BA691340BB613B685B68ED
:1013F80003F00302FB695B0002FA03F3BA691343C3
:10140800BB617B68BA691A603B685B6803F4403368
:10141800002B00F0B4800023FB60604B5B6C5F4ADC
:1014280043F4804353645D4B5B6C03F48043FB607F
:10143800FB685B4AFB699B08023352F82330BB61A7
:10144800FB6903F003039B000F2202FA03F3DB435B
:10145800BA691340BB617B68524A93422BD07B68C0
:10146800514A934225D07B68504A93421FD07B68EB
:101478004F4A934219D07B684E4A934213D07B68F7
:101488004D4A93420DD07B684C4A934207D07B6803
:101498004B4A934201D107230EE008230CE00623B0
:1014A8000AE0052308E0042306E0032304E00223FE
:1014B80002E0012300E00023FA6902F0030292002F
:1014C8009340BA691343BB613549FB699B080233F2
:1014D800BA6941F823203B4B1B68BB613B69DB437E
:1014E800BA691340BB613B685B6803F48033002B27
:1014F80003D0BA693B691343BB61324ABB691360C5
:10150800304B5B68BB613B69DB43BA691340BB6125
:101518003B685B6803F40033002B03D0BA693B696E
:101528001343BB61274ABB695360264B9B68BB6169
:101538003B69DB43BA691340BB613B685B6803F4F2
:101548008013002B03D0BA693B691343BB611D4A62
:10155800BB6993601B4BDB68BB613B69DB43BA69C2
:101568001340BB613B685B6803F40013002B03D096
:10157800BA693B691343BB61124ABB69D360FB6913
:101588000133FB61FB690F2B7FF690AE00BF00BFF4
:101598002437BD465DF8047B704700BF0038024021
:1015A80000380140000002400004024000080240E8
:1015B800000C0240001002400014024000180240D3
:1015C800001C0240003C014080B483B000AF78604A
:1015D8000B467B8013467B707B78002B03D07A8880
:1015E8007B689A6103E07B881A047B689A6100BF74
:1015F8000C37BD465DF8047B7047000080B586B0A7
:1016080000AF78607B68002B01D1012367E27B681B
:101618001B6803F00103002B75D0884B9B6803F00F
:101628000C03042B0CD0854B9B6803F00C03082B90
:1016380012D1824B5B6803F48003B3F5800F0BD1A2
:101648007E4B1B6803F40033002B5BD07B685B6820
:10165800002B57D1012342E27B685B68B3F5803FDA
:1016680006D1764B1B68754A43F4803313601DE03E
:101678007B685B68B3F5A02F0CD1704B1B686F4A71
:1016880043F4802313606D4B1B686C4A43F480332A
:1016980013600BE0694B1B68684A23F480331360BE
:1016A800664B1B68654A23F4802313607B685B687C
:1016B800002B13D0FFF7AAFC386108E0FFF7A6FC5F
:1016C80002463B69D31A642B01D9032307E25B4B1B
:1016D8001B6803F40033002BF0D014E0FFF796FCEE
:1016E800386108E0FFF792FC02463B69D31A642B85
:1016F80001D90323F3E1514B1B6803F40033002B9A
:10170800F0D100E000BF7B681B6803F00203002BE8
:1017180063D04A4B9B6803F00C03002B0BD0474B5C
:101728009B6803F00C03082B1CD1444B5B6803F443
:101738008003002B16D1414B1B6803F00203002BDA
:1017480005D07B68DB68012B01D00123C7E13B4B47
:101758001B6823F0F8027B681B69DB0037491343D9
:101768000B603AE07B68DB68002B20D0344B012209
:101778001A60FFF74BFC386108E0FFF747FC0246A8
:101788003B69D31A022B01D90323A8E12B4B1B6811
:1017980003F00203002BF0D0284B1B6823F0F8025B
:1017A8007B681B69DB00254913430B6015E0244B5C
:1017B80000221A60FFF72AFC386108E0FFF726FCD0
:1017C80002463B69D31A022B01D9032387E11B4B3D
:1017D8001B6803F00203002BF0D17B681B6803F041
:1017E8000803002B36D07B685B69002B16D0154B9D
:1017F80001221A60FFF70AFC386108E0FFF706FCCF
:1018080002463B69D31A022B01D9032367E10B4B2C
:101818005B6F03F00203002BF0D01BE0094B0022A2
:101828001A60FFF7F3FB38610EE0FFF7EFFB0246A3
:101838003B69D31A022B07D9032350E10038024031
:1018480000004742800E4742884B5B6F03F002035B
:10185800002BEAD17B681B6803F00403002B00F01F
:1018680097800023FB75814B1B6C03F08053002B82
:101878000FD10023BB607D4B1B6C7C4A43F0805327
:1018880013647A4B1B6C03F08053BB60BB68012365
:10189800FB75774B1B6803F48073002B18D1744BCE
:1018A8001B68734A43F480731360FFF7AFFB38611A
:1018B80008E0FFF7ABFB02463B69D31A022B01D9BC
:1018C80003230CE16A4B1B6803F48073002BF0D0F0
:1018D8007B689B68012B06D1644B1B6F634A43F0FE
:1018E800010313671CE07B689B68052B0CD15F4BD9
:1018F8001B6F5E4A43F0040313675C4B1B6F5B4A24
:1019080043F0010313670BE0584B1B6F574A23F052
:1019180001031367554B1B6F544A23F004031367E5
:101928007B689B68002B15D0FFF770FB38610AE0D5
:10193800FFF76CFB02463B69D31A41F288329342A7
:1019480001D90323CBE0494B1B6F03F00203002BA3
:10195800EED014E0FFF75AFB38610AE0FFF756FBB8
:1019680002463B69D31A41F28832934201D90323D4
:10197800B5E03E4B1B6F03F00203002BEED1FB7D5D
:10198800012B05D1394B1B6C384A23F08053136463
:101998007B689B69002B00F0A180344B9B6803F0A7
:1019A8000C03082B5CD07B689B69022B41D1314B1F
:1019B80000221A60FFF72AFB386108E0FFF726FBD0
:1019C80002463B69D31A022B01D9032387E0274B30
:1019D8001B6803F00073002BF0D17B68DA697B6821
:1019E8001B6A1A437B685B6A9B011A437B689B6A84
:1019F8005B08013B1B041A437B68DB6A1B061B4917
:101A080013434B601B4B01221A60FFF7FFFA386142
:101A180008E0FFF7FBFA02463B69D31A022B01D90B
:101A280003235CE0114B1B6803F00073002BF0D01C
:101A380054E0104B00221A60FFF7E8FA386108E01A
:101A4800FFF7E4FA02463B69D31A022B01D90323B4
:101A580045E0064B1B6803F00073002BF0D13DE016
:101A68007B689B69012B07D1012338E000380240CD
:101A780000700040600047421B4B5B68FB607B685E
:101A88009B69012B28D0FB6803F480027B68DB6923
:101A98009A4221D1FB6803F03F027B681B6A9A4295
:101AA8001AD1FA6847F6C07313407A68526A9201ED
:101AB800934211D1FB6803F440327B689B6A5B0850
:101AC800013B1B049A4207D1FB6803F070627B68F4
:101AD800DB6A1B069A4201D0012300E00023184666
:101AE8001837BD4680BD00BF0038024080B584B0BD
:101AF80000AF786039607B68002B01D10123CCE00E
:101B0800684B1B6803F007033A689A420CD9654B87
:101B18003A68D2B21A70634B1B6803F007033A683D
:101B28009A4201D00123B8E07B681B6803F00203E6
:101B3800002B20D07B681B6803F00403002B05D022
:101B4800594B9B68584A43F4E05393607B681B6881
:101B580003F00803002B05D0534B9B68524A43F40B
:101B680060439360504B9B6823F0F0027B689B684E
:101B78004D4913438B607B681B6803F00103002BFE
:101B880044D07B685B68012B07D1474B1B6803F483
:101B98000033002B19D101237FE07B685B68022B9F
:101BA80003D07B685B68032B07D13F4B1B6803F0AE
:101BB8000073002B09D101236FE03B4B1B6803F036
:101BC8000203002B01D1012367E0374B9B6823F008
:101BD80003027B685B68344913438B60FFF716FA8E
:101BE800F8600AE0FFF712FA0246FB68D31A41F2DE
:101BF8008832934201D903234FE02B4B9B6803F0B3
:101C08000C027B685B689B009A42EBD1254B1B68F2
:101C180003F007033A689A420CD2224B3A68D2B2D0
:101C28001A70204B1B6803F007033A689A4201D0E8
:101C3800012332E07B681B6803F00403002B08D003
:101C4800194B9B6823F4E0527B68DB681649134301
:101C58008B607B681B6803F00803002B09D0124BCC
:101C68009B6823F460427B681B69DB000E491343C1
:101C78008B6000F021F802460B4B9B681B0903F0B0
:101C88000F030A49CB5C22FA03F3094A1360094B94
:101C98001B681846FFF776F9002318461037BD462B
:101CA80080BD00BF003C0240003802404C2C0008B8
:101CB80010000020140000202DE9B04F94B000AFB0
:101CC80000237B640023FB6400233B640023BB6484
:101CD800794B9B6803F00C03082B0DD0082B00F2FE
:101CE800E180002B02D0042B03D0DBE0734BBB64F4
:101CF800DBE0734BBB64D8E06F4B5B6803F03F03DA
:101D08007B646D4B5B6803F48003002B63D06A4BE4
:101D18005B689B090022BB63FA63BB6BC3F30803D0
:101D28003B6300237B63D7E90C4522462B464FF0E3
:101D380000004FF00001590141EAD261500102460A
:101D48000B462146511A3961294663EB01037B6131
:101D58004FF000024FF00003D7E904AB59468B015E
:101D6800514643EA916351468A015146B2EB010854
:101D7800594663EB01094FF000024FF000034FEAA8
:101D8800C90343EA58734FEAC80290469946234666
:101D980018EB0303BB602B4649EB0303FB604FF0D2
:101DA80000024FF00003D7E9024529464B022146BD
:101DB80043EAD15321464A02104619467B6C002259
:101DC800BB62FA62D7E90A23FEF7FAF902460B4624
:101DD8001346FB6458E0384B5B689B0900221846A1
:101DE8001146C0F308033B6200237B62D7E90889E8
:101DF80042464B464FF000004FF00001590141EABE
:101E0800D261500102460B464146B2EB010A4946EF
:101E180063EB010B4FF000024FF000034FEA8B1306
:101E280043EA9A634FEA8A12B2EB0A0463EB0B05A2
:101E38004FF000024FF00003EB0043EA5473E20056
:101E480014461D464346E3183B604B4645EB0303E7
:101E58007B604FF000024FF00003D7E900452946A8
:101E68008B02214643EA915321468A0210461946BD
:101E78007B6C0022BB61FA61D7E90623FEF7A0F963
:101E880002460B461346FB640B4B5B681B0C03F0C6
:101E9800030301335B003B64FA6C3B6CB2FBF3F366
:101EA800BB6402E0054BBB6400BFBB6C18465037EF
:101EB800BD46BDE8B08F00BF003802400024F400E2
:101EC80000127A0080B588B000AFF860B9603B6056
:101ED8001346FB800023FB77FB6893F85030012BF7
:101EE80001D1022326E1FB68012283F85020FFF785
:101EF8008DF8B861FB88FB82FB6893F85130DBB240
:101F0800012B02D00223FB770BE1BB68002B02D028
:101F1800FB88002B02D10123FB7702E1FB68032237
:101F280083F85120FB6800225A65FB68BA681A6377
:101F3800FB68FA889A86FB68FA88DA86FB680022CA
:101F48009A63FB6800229A87FB680022DA87FB689D
:101F580000225A64FB6800221A64FB689B68B3F588
:101F6800004F0FD1FB681B681A68FB681B6822F0DA
:101F780040021A60FB681B681A68FB681B6842F419
:101F880080421A60FB681B681B6803F04003402B03
:101F980007D0FB681B681A68FB681B6842F04002A0
:101FA8001A60FB68DB68B3F5006F4BD1FB685B68B0
:101FB800002B02D0FB8A012B3ED1FB681B6B1A88D1
:101FC800FB681B68DA60FB681B6B9A1CFB681A636A
:101FD800FB68DB8E9BB2013B9AB2FB68DA862BE08A
:101FE800FB681B689B6803F00203022B12D1FB6895
:101FF8001B6B1A88FB681B68DA60FB681B6B9A1CF2
:10200800FB681A63FB68DB8E9BB2013B9AB2FB68E4
:10201800DA8611E0FEF7FAFF0246BB69D31A3A687E
:102028009A4203D83B68B3F1FF3F02D13B68002BCB
:1020380002D10323FB7774E0FB68DB8E9BB2002B95
:10204800CED14CE0FB685B68002B02D0FB8A012BE9
:1020580040D1FB681A6BFB681B680C3312781A7046
:10206800FB681B6B5A1CFB681A63FB68DB8E9BB210
:10207800013B9AB2FB68DA862CE0FB681B689B6818
:1020880003F00203022B13D1FB681A6BFB681B6871
:102098000C3312781A70FB681B6B5A1CFB681A63A6
:1020A800FB68DB8E9BB2013B9AB2FB68DA8611E0D3
:1020B800FEF7ACFF0246BB69D31A3A689A4203D8C6
:1020C8003B68B3F1FF3F02D13B68002B02D10323E9
:1020D800FB7726E0FB68DB8E9BB2002BCDD1BA697B
:1020E8003968F86800F0B2F80346002B02D0FB68A4
:1020F80020225A65FB689B68002B0AD100233B61AC
:10210800FB681B68DB683B61FB681B689B683B617D
:102118003B69FB685B6D002B02D00123FB7700E075
:1021280000BFFB68012283F85120FB68002283F876
:102138005020FB7F18462037BD4680BD80B588B04B
:1021480000AFF860B9603B601346FB71FEF75EFFB5
:102158000246BB6A9B1A3A681344FB61FEF756FFB6
:10216800B861394B1B685B011B0DFA6902FB03F36D
:102178007B6154E03B68B3F1FF3F50D0FEF746FF68
:102188000246BB69D31AFA699A4202D9FB69002B45
:102198003DD1FB681B685A68FB681B6822F0E002A7
:1021A8005A60FB685B68B3F5827F11D1FB689B6856
:1021B800B3F5004F04D0FB689B68B3F5806F07D177
:1021C800FB681B681A68FB681B6822F040021A60EB
:1021D800FB689B6AB3F5005F0FD1FB681B681A6840
:1021E800FB681B6822F400521A60FB681B681A68B7
:1021F800FB681B6842F400521A60FB68012283F8EE
:102208005120FB68002283F85020032317E07B69E4
:10221800002B01D10023FB617B69013B7B61FB68DB
:102228001B689A68BB681340BA689A420CBF0123BE
:102238000023DBB21A46FB799A429BD10023184649
:102248002037BD4680BD00BF1000002080B588B093
:1022580002AFF860B9607A601B4B1B681B4AA2FB8F
:1022680003235B0D4FF47A7202FB03F37B61FB6877
:102278005B68B3F5827F12D17B680093BB6800224C
:102288008021F868FFF75AFF0346002B16D0FB6839
:102298005B6D43F02002FB685A6503230FE07B69FE
:1022A800002B0AD07B69013B7B61FB681B689B683C
:1022B80003F08003802BF2D000E000BF0023184613
:1022C8001837BD4680BD00BF10000020819F5E16F4
:1022D80080B582B000AF78607B68002B01D1012304
:1022E80041E07B6893F83D30DBB2002B06D17B6878
:1022F800002283F83C207868FEF796FD7B6802226E
:1023080083F83D207B681A687B68043319461046B9
:1023180000F096FA7B68012283F846207B68012248
:1023280083F83E207B68012283F83F207B680122E6
:1023380083F840207B68012283F841207B680122D2
:1023480083F842207B68012283F843207B680122BE
:1023580083F844207B68012283F845207B680122AA
:1023680083F83D20002318460837BD4680BD00008D
:1023780080B485B000AF78607B6893F83D30DBB2FD
:10238800012B01D001234EE07B68022283F83D2017
:102398007B681B68DA687B681B6842F00102DA60B8
:1023A8007B681B68234A934222D07B681B68B3F181
:1023B800804F1DD07B681B681F4A934218D07B68EA
:1023C8001B681E4A934213D07B681B681C4A9342C1
:1023D8000ED07B681B681B4A934209D07B681B6838
:1023E800194A934204D07B681B68184A934211D15A
:1023F8007B681B689B6803F00703FB60FB68062B80
:1024080010D07B681B681A687B681B6842F0010261
:102418001A6007E07B681B681A687B681B6842F0D3
:1024280001021A60002318461437BD465DF8047B84
:10243800704700BF00000140000400400008004051
:10244800000C00400004014000400140001800401A
:1024580080B582B000AF78607B681B681B6903F0A9
:102468000203022B22D17B681B68DB6803F002039E
:10247800022B1BD17B681B686FF002021A617B6814
:1024880001221A777B681B689B6903F00303002B02
:1024980003D0786800F0B5F905E0786800F0A7F98E
:1024A800786800F0B8F97B6800221A777B681B68A7
:1024B8001B6903F00403042B22D17B681B68DB68CB
:1024C80003F00403042B1BD17B681B686FF0040224
:1024D8001A617B6802221A777B681B689B6903F480
:1024E8004073002B03D0786800F08BF905E078681A
:1024F80000F07DF9786800F08EF97B6800221A7781
:102508007B681B681B6903F00803082B22D17B68D2
:102518001B68DB6803F00803082B1BD17B681B686A
:102528006FF008021A617B6804221A777B681B68BF
:10253800DB6903F00303002B03D0786800F061F92E
:1025480005E0786800F053F9786800F064F97B6872
:1025580000221A777B681B681B6903F01003102B95
:1025680022D17B681B68DB6803F01003102B1BD19A
:102578007B681B686FF010021A617B6808221A7763
:102588007B681B68DB6903F44073002B03D0786811
:1025980000F037F905E0786800F029F9786800F06C
:1025A8003AF97B6800221A777B681B681B6903F07D
:1025B8000103012B0ED17B681B68DB6803F0010364
:1025C800012B07D17B681B686FF001021A617868DC
:1025D800FEF752FA7B681B681B6903F08003802BA7
:1025E8000ED17B681B68DB6803F08003802B07D162
:1025F8007B681B686FF080021A61786800F0E0FA67
:102608007B681B681B6903F04003402B0ED17B6875
:102618001B68DB6803F04003402B07D17B681B680D
:102628006FF040021A61786800F0FFF87B681B6859
:102638001B6903F02003202B0ED17B681B68DB6825
:1026480003F02003202B07D17B681B686FF0200262
:102658001A61786800F0AAFA00BF0837BD4680BD45
:1026680080B584B000AF786039600023FB737B6865
:1026780093F83C30012B01D10223B4E07B6801229E
:1026880083F83C207B68022283F83D207B681B6826
:102698009B68BB60BB6823F07703BB60BB6823F40F
:1026A8007F43BB607B681B68BA689A603B681B689D
:1026B800B3F5005F3ED0B3F5005F00F28780B3F555
:1026C800805F00F08680B3F5805F7FD8702B1AD0CA
:1026D800702B7BD8602B50D0602B77D8502B3CD0F8
:1026E800502B73D8402B58D0402B6FD8302B64D048
:1026F800302B6BD8202B60D0202B67D8002B5CD0D8
:10270800102B5AD062E07B6818683B6899683B6870
:102718005A683B68DB6800F0ADF97B681B689B680A
:10272800BB60BB6843F07703BB607B681B68BA6813
:102738009A604FE07B6818683B6899683B685A68FC
:102748003B68DB6800F096F97B681B689A687B68D1
:102758001B6842F480429A603CE07B6818683B68DA
:1027680059683B68DB681A4600F00AF97B681B6801
:102778005021184600F063F92CE07B6818683B6824
:1027880059683B68DB681A4600F029F97B681B68C2
:102798006021184600F053F91CE07B6818683B6814
:1027A80059683B68DB681A4600F0EAF87B681B68E2
:1027B8004021184600F043F90CE07B681A683B6832
:1027C8001B681946104600F03AF903E00123FB7331
:1027D80000E000BF7B68012283F83D207B6800226F
:1027E80083F83C20FB7B18461037BD4680BD80B47B
:1027F80083B000AF786000BF0C37BD465DF8047B3E
:10280800704780B483B000AF786000BF0C37BD4616
:102818005DF8047B704780B483B000AF786000BF78
:102828000C37BD465DF8047B704780B483B000AFB9
:10283800786000BF0C37BD465DF8047B7047000028
:1028480080B485B000AF786039607B681B68FB6036
:102858007B68404A934213D07B68B3F1804F0FD016
:102868007B683D4A93420BD07B683C4A934207D031
:102878007B683B4A934203D07B683A4A934208D12B
:10288800FB6823F07003FB603B685B68FA681343DE
:10289800FB607B682F4A93422BD07B68B3F1804F53
:1028A80027D07B682C4A934223D07B682B4A9342DB
:1028B8001FD07B682A4A93421BD07B68294A9342DF
:1028C80017D07B68284A934213D07B68274A9342E3
:1028D8000FD07B68264A93420BD07B68254A9342E7
:1028E80007D07B68244A934203D07B68234A9342EB
:1028F80008D1FB6823F44073FB603B68DB68FA6827
:102908001343FB60FB6823F080023B685B69134359
:10291800FB607B68FA681A603B689A687B68DA62D1
:102928003B681A687B689A627B680A4A934203D0BC
:102938007B680C4A934203D13B681A697B681A6327
:102948007B6801225A6100BF1437BD465DF8047BDD
:10295800704700BF0000014000040040000800402C
:10296800000C0040000401400040014000440140C8
:102978000048014000180040001C004000200040B2
:1029880080B487B000AFF860B9607A60FB681B6AF2
:102998007B61FB681B6A23F00102FB681A62FB6813
:1029A8009B693B613B6923F0F0033B617B681B013A
:1029B8003A6913433B617B6923F00A037B617A69B7
:1029C800BB6813437B61FB683A699A61FB687A6963
:1029D8001A6200BF1C37BD465DF8047B704780B49F
:1029E80087B000AFF860B9607A60FB681B6A23F0B3
:1029F8001002FB681A62FB689B697B61FB681B6AB3
:102A08003B617B6923F470437B617B681B037A69B4
:102A180013437B613B6923F0A0033B61BB681B0147
:102A28003A6913433B61FB687A699A61FB683A69C2
:102A38001A6200BF1C37BD465DF8047B704780B43E
:102A480085B000AF786039607B689B68FB60FB6885
:102A580023F07003FB603A68FB68134343F00703F5
:102A6800FB607B68FA689A6000BF1437BD465DF862
:102A7800047B704780B487B000AFF860B9607A60B3
:102A88003B60FB689B687B617B6923F47F437B61C8
:102A98003B681A027B681A43BB6813437A6913437D
:102AA8007B61FB687A699A6000BF1C37BD465DF898
:102AB800047B704780B485B000AF786039607B686C
:102AC80093F83C30012B01D102235AE07B680122A4
:102AD80083F83C207B68022283F83D207B681B68D2
:102AE8005B68FB607B681B689B68BB60FB6823F0C6
:102AF8007003FB603B681B68FA681343FB607B68E4
:102B08001B68FA685A607B681B68214A934222D086
:102B18007B681B68B3F1804F1DD07B681B681D4A1A
:102B2800934218D07B681B681B4A934213D07B687A
:102B38001B681A4A93420ED07B681B68184A934256
:102B480009D07B681B68174A934204D07B681B68CE
:102B5800154A93420CD1BB6823F08003BB603B68E5
:102B68005B68BA681343BB607B681B68BA689A6085
:102B78007B68012283F83D207B68002283F83C2093
:102B8800002318461437BD465DF8047B704700BF24
:102B9800000001400004004000080040000C004014
:102BA80000040140004001400018004080B483B098
:102BB80000AF786000BF0C37BD465DF8047B7047F6
:102BC80080B483B000AF786000BF0C37BD465DF8B5
:102BD800047B704702440346934200D1704703F8D0
:102BE800011BF9E770B50D4D0D4C641BA4100026B0
:102BF800A64209D10B4D0C4C00F018F8641BA41028
:102C08000026A64205D170BD55F8043B9847013609
:102C1800EEE755F8043B98470136F2E7642C0008C4
:102C2800642C0008642C0008682C0008F8B500BF64
:102C3800F8BC08BC9E467047F8B500BFF8BC08BC95
:042C48009E467047ED
:102C4C000000000000000000010203040607080950
:082C5C009CD5FF7F0100000080
:042C6400AD010008B6
:042C680089010008D6
:102C6C0000010203FFFF0000204000004646000068
:0C2C7C000024F400100000000100000023
:0400000508000EF5EC
:00000001FF
